:020000040000FA
:1000000060020020F1020000F9020000FB02000083
:10001000FD020000FF0200000103000000000000DC
:1000200000000000000000000000000003030000CA
:1000300005030000000000000703000009030000A2
:100040000B0300000D0300000F030000110300006C
:10005000130300001503000017030000190300003C
:100060001B0300001D0300001F030000210300000C
:1000700023030000250300002703000029030000DC
:100080002B0300002D0300002F03000031030000AC
:10009000330300003503000037030000390300007C
:1000A0003B0300003D0300003F030000410300004C
:1000B000430300004503000047030000490300001C
:1000C0004B0300004D0300004F03000051030000EC
:1000D00053030000550300005703000059030000BC
:1000E0005B0300005D030000000000005F030000F0
:1000F0006103000063030000650300006703000064
:10010000690300006B0300006D0300006F03000033
:1001100000000000000000007103000073030000F5
:100120007503000077030000790300007B030000E3
:100130007D0300007F0300008103000083030000B3
:1001400000000000000000000000000000000000AF
:100150008503000087030000890300008B03000073
:10016000000000000000000000000000000000008F
:10017000000000000000000000000000000000007F
:10018000000000000000000000000000000000006F
:10019000000000000000000000000000000000005F
:1001A000000000000000000000000000000000004F
:1001B0008D0300008F0300009103000093030000F3
:1001C0009503000097030000990300009B030000C3
:1001D0009D0300009F030000A1030000A303000093
:1001E000A5030000A7030000A90300000000000011
:1001F00000000000AB030000AD030000AF030000EF
:10020000B1030000B3030000000000000000000084
:10021000B5030000B7030000B9030000BB030000F2
:10022000BD030000BF030000C1030000C3030000C2
:10023000C5030000C7030000C9030000CB03000092
:10024000CD030000CF030000D1030000D303000062
:10025000D5030000D7030000D9030000DB03000032
:10026000DD030000DF030000E103000000F002F8FE
:1002700000F02EF80AA090E8000C82448344AAF112
:100280000107DA4501D100F023F8AFF2090EBAE810
:100290000F0013F0010F18BFFB1A43F001031847BA
:1002A000E8030000F80300000023002400250026D6
:1002B000103A28BF78C1FBD8520728BF30C148BFC9
:1002C0000B6070471FB500F0D1F91FBD10B510BD10
:1002D00000F09BF81146FFF7F5FF00F057F900F02A
:1002E000B9F803B4FFF7F2FF03BC00F0C1F8000057
:1002F0003F4880473F480047FEE7FEE7FEE7FEE74E
:10030000FEE7FEE7FEE7FEE7FEE7FEE7FEE7FEE7C5
:10031000FEE7FEE7FEE7FEE7FEE7FEE7FEE7FEE7B5
:10032000FEE7FEE7FEE7FEE7FEE7FEE7FEE7FEE7A5
:10033000FEE7FEE7FEE7FEE7FEE7FEE7FEE7FEE795
:10034000FEE7FEE7FEE7FEE7FEE7FEE7FEE7FEE785
:10035000FEE7FEE7FEE7FEE7FEE7FEE7FEE7FEE775
:10036000FEE7FEE7FEE7FEE7FEE7FEE7FEE7FEE765
:10037000FEE7FEE7FEE7FEE7FEE7FEE7FEE7FEE755
:10038000FEE7FEE7FEE7FEE7FEE7FEE7FEE7FEE745
:10039000FEE7FEE7FEE7FEE7FEE7FEE7FEE7FEE735
:1003A000FEE7FEE7FEE7FEE7FEE7FEE7FEE7FEE725
:1003B000FEE7FEE7FEE7FEE7FEE7FEE7FEE7FEE715
:1003C000FEE7FEE7FEE7FEE7FEE7FEE7FEE7FEE705
:1003D000FEE7FEE7FEE7FEE7FEE7FEE7FEE7FEE7F5
:1003E000FEE7000004480549034A054B704700003A
:1003F000810400006D020000600000206002002007
:1004000060000020704770477047754600F02CF878
:10041000AE4605006946534620F00700854618B0F1
:1004200020B5FFF7DFFFBDE820404FF000064FF09A
:1004300000074FF000084FF0000BAC46ACE8C009D5
:10044000ACE8C009ACE8C009ACE8C00921F007017C
:100450008D46704710B50446AFF300802046BDE8D6
:100460001040FFF73EBF000000487047000000202A
:1004700001491820ABBEFEE72600020070470000CD
:1004800081B04EF68851CEF20001086840F4700049
:1004900008604EF27001C4F20F0142F61000C0F283
:1004A000807008604EF26002C4F20F0243F6D12061
:1004B000C0F28E70106042F64250C0F29E10106082
:1004C00042F60000C0F28010086000200090FFE7B4
:1004D0000098C0087C2805D8FFE7FFE700980130A6
:1004E0000090F5E74EF26001C4F20F0140F6425071
:1004F000C0F29E1008604EF27001C4F20F0140F687
:100500000000C0F28010086000200090FFE7009813
:10051000C0087C2805D8FFE7FFE70098013000906D
:10052000F5E74EF26001C4F20F0140F64250C0F20E
:10053000DE100860FFE74EF25000C4F20F000068C2
:1005400000F04000402801D0FFE7F4E74EF26001E0
:10055000C4F20F0140F24250C0F2DE1008604EF2C9
:100560007001C4F20F014FF0C070086000200090CD
:10057000FFE7009842F20F71884205D8FFE7FFE7D6
:10058000009801300090F4E701B0704781B000207E
:1005900000904EF20862C4F20F02116841F020018F
:1005A000116045F20042C4F20202116841F00401F8
:1005B000116045F22042C4F20202116821F00401E8
:1005C000116045F21C52C4F20202116841F00401AC
:1005D000116045F2FC32C4F20202116821F00401FC
:1005E00011604EF20462C4F20F02116841F0010181
:1005F00011600C21C4F203010A6822F001020A60B2
:100600000022C4F2030210600422C4F20302106844
:1006100040F002001060106820F0100010602822E6
:10062000C4F2030242F20040C0F2F4001060086815
:1006300040F001000860FFE71C20C4F203000068DE
:10064000C00780B1FFE72421C4F20301086840F02D
:100650000100086045F2FC31C4F20201086880F034
:1006600004000860FFE7002001B07047F1EE100AB7
:100670004FF6FF71C0F2C03120EA010040F0407037
:10068000E1EE100A7047000098060000000000200C
:0806900060020000A802000056
:04000005000002F104
:00000001FF
